:020000040800F2
:100000000000012005020008550200085502000802
:1000100055020008550200085502000800000000C3
:100020000000000000000000000000005502000871
:1000300055020008000000005502000855020008A3
:100040005502000855020008550200085502000834
:100050005502000855020008550200085502000824
:100060005502000855020008550200085502000814
:100070005502000855020008550200085502000804
:1000800055020008550200085502000855020008F4
:1000900055020008550200085502000855020008E4
:1000A00055020008550200085502000855020008D4
:1000B00055020008550200085502000855020008C4
:1000C00055020008550200085502000855020008B4
:1000D00055020008550200085502000855020008A4
:1000E0005502000855020008550200085502000894
:1000F0005502000855020008550200085502000884
:100100005502000855020008550200085502000873
:100110005502000855020008550200085502000863
:100120005502000855020008550200085502000853
:100130005502000855020008550200085502000843
:100140005502000855020008550200085502000833
:1001500010B5054C237833B9044B13B10448AFF301
:1001600000800123237010BD00000020000000006B
:10017000A002000808B5034B1BB103490348AFF3C5
:10018000008008BD0000000004000020A00200085C
:1001900080B483B000AF184B1B68174A43F00403C8
:1001A0001360164B1B68154A23F470031360144B3D
:1001B0001B68134A43F400131360114B1B68104A69
:1001C00043F40053136002E07B6801337B607B687B
:1001D00041F287329342F7DD094B1B68084A23F44A
:1001E0000053136002E03B6801333B603B6841F21F
:1001F00087329342F7DDE0E718100240040801401F
:100200000C1002400D488546AFF300800C480D49A4
:100210000D4A002302E0D458C4500433C4188C4261
:10022000F9D30A4A0A4C002301E013600432A242C7
:10023000FBD300F011F8FFF7ABFFFEE70000012051
:100240000000002000000020C00200080000002084
:100250001C000020FEE7000070B500250C4E0D4C80
:10026000A41BA410A54209D100F01AF800250A4EDB
:100270000A4CA41BA410A54205D170BD56F8253028
:1002800098470135EEE756F8253098470135F2E7F3
:10029000B8020008B8020008B8020008BC02000852
:1002A000F8B500BFF8BC08BC9E467047F8B500BF63
:0802B000F8BC08BC9E46704733
:0402B80075010008C4
:0402BC0051010008E4
:0400000508000205E8
:00000001FF
