S01C0000556E6974375F53656374696F6E315F5461736B322E73726563A8
S11300000C942A000C9447000C9447000C9447006D
S11300100C9447000C9447000C9447000C94470040
S11300200C9447000C9447000C9447000C94470030
S11300300C9447000C9447000C9447000C94470020
S11300400C9447000C9447000C9447000C94470010
S11300500C94470011241FBECFE5D8E0DEBFCDBF0E
S113006010E0A0E6B0E0E4E0F1E002C005900D92FB
S1130070A036B107D9F710E0A0E6B0E001C01D92A8
S1130080A036B107E1F70E944F000C9480000C9455
S113009000008FEF8ABB1BBAA098A89A08950E940B
S11300A0490021E030E080E090E0C1E0D0E000E0F1
S11300B010E0989913C0989BFECF220F331FE22FB4
S11300C0E150EBBB01964FEB57E269E041505040E1
S11300D06040E1F700C00000989BFECF8830910596
S11300E041F79899E6CF1BBA6FEB77E289E061504C
S11300F070408040E1F700C000009E01C801D9CFE4
S1070100F894FFCF9D
S9030000FC
