:100000000C942A000C947D000C949C000C94BB0072
:100010000C9447000C9447000C9447000C94470044
:100020000C9447000C9447000C9447000C94470034
:100030000C9447000C9447000C9447000C94470024
:100040000C9447000C9447000C9447000C94470014
:100050000C94470011241FBECFE5D8E0DEBFCDBF12
:1000600010E0A0E6B0E0E8EBF1E002C005900D92F0
:10007000A036B107D9F710E0A0E6B0E001C01D92AC
:10008000A036B107E1F70E9475000C94DA000C94D9
:100090000000BA9881B3837D81BB81B3806E81BB40
:1000A000089585B796B7816096BF85BF85B796B727
:1000B0008D7F96BF85BF85B796B78C6296BF85BF8B
:1000C00084B795B78F7B95BF84BF8BB79CB7806E85
:1000D0009D609CBF8BBF80915F00909160008068A5
:1000E0009093600080935F0008950E9449000E94F1
:1000F000510082B38F7182BBFCCF1F920F920FB65B
:100100000F9211248F939F93AF93BF93959A8AB7C1
:1001100080648ABF8FEF99E6A8E181509040A040AB
:10012000E1F700C00000BF91AF919F918F910F90B8
:100130000FBE0F901F9018951F920F920FB60F923F
:1001400011248F939F93AF93BF93969A8AB7806839
:100150008ABF8FEF99E6A8E181509040A040E1F777
:1001600000C00000BF91AF919F918F910F900FBE83
:100170000F901F9018951F920F920FB60F92112497
:100180008F939F93AF93BF93C79A8AB780628ABFBA
:100190008FEF99E6A8E181509040A040E1F700C0C0
:1001A0000000BF91AF919F918F910F900FBE0F9064
:0801B0001F901895F894FFCF91
:00000001FF
