:100000000C942A000C9447000C9447000C94470071
:100010000C9447000C9447000C9447000C94470044
:100020000C9447000C9447000C9447000C94470034
:100030000C9447000C9447000C9447000C94470024
:100040000C9447000C9447000C9447000C94470014
:100050000C94470011241FBECFE5D8E0DEBFCDBF12
:1000600010E0A0E6B0E0E8E3FCE002C005900D92ED
:10007000A437B107D9F710E0A4E7B0E001C01D92A2
:10008000A139B107E1F70E94AB020C941A060C9457
:100090000000CF93DF930F92CDB7DEB78983813411
:1000A00081F533C08F3221F18A3211F18D3201F1A5
:1000B0008B32F1F08091740090917500009721F0DF
:1000C0008130910511F50AC080E890E0BE016F5FB4
:1000D0007F4F41E050E00E942B0317C086E790E07D
:1000E000BE016F5F7F4F41E050E00E942B030DC0C7
:1000F00080938A0081E090E0909375008093740073
:1001000004C08D3311F08F3369F60F90DF91CF91DA
:100110000895CF93DF93EC0180E890E00E940D03F7
:100120009093900080938F0086E790E00E940D03EB
:10013000BC0190938C0080938B0080918A008B325D
:1001400081F18C3218F48A32B1F505C08D32F1F0AC
:100150008F3289F510C020918F0030919000629FFE
:10016000C001639F900D729F900D112490938E009B
:1001700080938D0020C080918F00909190000E940C
:10018000E60270938E0060938D0015C080918F0001
:1001900090919000861B970B90938E0080938D001A
:1001A0000AC080918F0090919000680F791F709322
:1001B0008E0060938D0000D000D000D0EDB7FEB768
:1001C0003196ADB7BEB71296DC93CE93119780E609
:1001D00090E09383828380918D0090918E0095832F
:1001E00084830E9443038DB79EB706960FB6F8949A
:1001F0009EBF0FBE8DBFDF91CF9108951092750005
:10020000109274001092800010927600089581B3CD
:10021000807F81BB81B3806F81BB8FEF82BB0895EC
:100220006F927F928F929F92AF92BF92CF92DF9206
:10023000EF92FF920F931F93CF93DF9303E610E0AB
:10024000C0E0D0E0D80161E070E0EE24FF246894C3
:10025000E1F8E00EF11ECC24DD246894C2F8C00E53
:10026000D11E0F2EF6E0AF2EBB24F02DA00EB11E36
:100270000F2EFBE68F2EF0E09F2EF02D66247724C4
:1002800092B39B010C9002C0220F331F0A94E2F735
:10029000AB01F701008002C0440F551F0A94E2F73A
:1002A000242B292BCB01F601008002C0880F991F57
:1002B0000A94E2F7822B9B01F501008002C0220F15
:1002C000331F0A94E2F7822B82BB22B3F8018081AC
:1002D0000E5F1F4FAB0102C0440F551F8A95E2F716
:1002E000CA018095282322BBF401A30180B3208199
:1002F000329690E0022E02C0959587950A94E2F717
:1003000080FD50C0CB0102C0880F991F2A95E2F7EB
:100310009C0180B390E0822393230097D1F3C130F6
:10032000D105D1F0C230D1051CF4209741F03AC07C
:10033000C230D105F1F0C330D105A1F527C0411578
:100340005105E9F141305105E1F142305105D9F152
:100350004330510539F539C041155105C1F14130DE
:100360005105B9F142305105B1F143305105D1F495
:1003700034C04115510599F14130510591F1423098
:10038000510589F14330510569F42FC041155105DC
:1003900071F14130510569F14230510561F143304D
:1003A000510559F14F5F5F4F4430510509F09ECF21
:1003B0002196C430D10509F063CF81E41FC087E3E3
:1003C0001DC084E31BC081E319C08FE317C088E31D
:1003D00015C085E313C082E311C080E30FC089E339
:1003E0000DC086E30BC083E309C08DE307C08FE235
:1003F00005C08AE203C08DE201C08BE2DF91CF919C
:100400001F910F91FF90EF90DF90CF90BF90AF9032
:100410009F908F907F906F900895C39A83ED90E3A3
:100420000197F1F700C00000C39808958AB31ABA83
:10043000C29AC1980E940D028AB38FEF8ABBC298FC
:100440000895CF93C82F0E941602CBBB88B3897F33
:1004500088BB89EF90E00197F1F700C000000E948F
:100460000D02CF910895813039F4603168F4862F00
:1004700080580E9421020895823031F4603120F4C6
:10048000862F80540E942102089581E00E9421025B
:10049000089587E893E10197F1F700C0000087B362
:1004A0008E6087BB88B3817F88BB8FEF8ABB85EA6C
:1004B0009EE00197F1F700C000000E94450288E32A
:1004C0000E94210286E00E94210280E80E9421020F
:1004D0008FE00E9421020895CF93C82F0E94160238
:1004E000CBBBC298C19A89EF90E00197F1F700C0A9
:1004F00000000E940D02CF910895EF92FF920F939A
:100500001F93CF93DF93082F192FC0E0D0E0EE2484
:10051000FF2415C021960E946C02C031D10529F438
:1005200082E060E00E9433020AC0C032D10539F493
:100530000E94450281E060E00E943302E701F80179
:1005400081918F01882331F7DF91CF911F910F9116
:10055000FF90EF900895CF93DF93CDB7DEB7649708
:100560000FB6F894DEBF0FBECDBF0E9449020E94B5
:10057000070119821A821B821C82FE01359680E1D6
:10058000DF011D928A95E9F70E941001182F0E9441
:1005900049001F3329F01134B9F31D3399F403C016
:1005A0000E944502F1CF8DE30E946C02CE010196BC
:1005B0000E948900CE0101960E947D020E94FE00E9
:1005C0001982E2CF812F0E946C02DECF97FB092EA9
:1005D00007260AD077FD04D00CD006D000201AF4EC
:1005E000709561957F4F0895F6F7909581959F4F8F
:1005F0000895AA1BBB1B51E107C0AA1FBB1FA6176A
:10060000B70710F0A61BB70B881F991F5A95A9F7BB
:1006100080959095BC01CD010895FC01882799270C
:10062000E89421912032E9F3293010F02E30C8F3FC
:100630002B3241F02D3239F4689404C00E943B0300
:10064000820F911D219120532A30C0F31EF4909502
:1006500081959F4F0895FB01DC010D900020E9F783
:1006600011974150504028F0019000200D92C9F799
:1006700008951C9208957AE0979F902D879F802D72
:10068000910D11240895AEE0B0E0E9E4F3E00C949C
:10069000F1050D891E8986E08C831A8309838FEF0B
:1006A0009FE79E838D83AE01475E5F4FCE0101962B
:1006B0006F89788D0E946503EF81F885E00FF11F47
:1006C00010822E96E4E00C940D06ADE0B0E0EBE66F
:1006D000F3E00C94E3053C017D876C875A01FC0133
:1006E00017821682838181FFC8C12E010894411CA4
:1006F000511CF3019381EC85FD8593FD859193FF5A
:100700008191FD87EC87882309F4B3C1853241F4D8
:1007100093FD859193FF8191FD87EC87853229F4C4
:1007200090E0B3010E945905E4CFFF24EE2410E0CD
:100730001032B0F48B3269F08C3228F4803251F0F0
:10074000833271F40BC08D3239F0803349F411607B
:100750002CC01260146029C0186027C0106125C029
:1007600017FD2EC0282F20532A3098F416FF08C0FA
:100770008F2D880FF82EFF0CFF0CF80EF20E15C00F
:100780008E2D880FE82EEE0CEE0CE80EE20E1062B5
:100790000CC08E3221F416FD6CC1106406C08C367C
:1007A00011F4106802C0883659F4EC85FD8593FD7C
:1007B000859193FF8191FD87EC87882309F0B8CF5D
:1007C000982F9554933018F09052933038F424E0D9
:1007D00030E0A20EB31E3FE339830FC0833631F001
:1007E000833781F0833509F05AC022C0F50180813A
:1007F000898322E030E0A20EB31E21E0C22ED12C6C
:10080000420114C092E0292E312C2A0C3B1CF50128
:100810008080918016FF03C06F2D70E002C06FEFE3
:100820007FEFC4010E944E056C0151011F7715C076
:1008300082E0282E312C2A0C3B1CF501808091800F
:1008400016FF03C06F2D70E002C06FEF7FEFC40191
:100850000E9443056C011068510113FD1CC006C0C5
:1008600080E290E0B3010E945905EA948E2D90E059
:10087000C816D906A8F30FC0F40117FD859117FF1C
:1008800081914F0190E0B3010E945905E110EA9473
:100890000894C108D108C114D10471F7E7C08436A7
:1008A00011F0893651F5F50117FF07C0808191815C
:1008B000A281B38124E030E008C080819181AA2721
:1008C00097FDA095BA2F22E030E0A20EB31E012FB3
:1008D0000F76B7FF08C0B095A095909581959F4F72
:1008E000AF4FBF4F0068BC01CD01A2012AE030E04C
:1008F0000E948505D82ED4183FC0853721F41F7E6D
:100900002AE030E020C0197F8F36A9F0803720F42C
:10091000883509F0AEC00BC0803721F0883709F068
:10092000A8C001C0106114FF09C0146007C014FF03
:1009300008C0166006C028E030E005C020E130E0C5
:1009400002C020E132E0F50117FF07C0608171812C
:100950008281938144E050E006C06081718180E033
:1009600090E042E050E0A40EB51EA2010E94850571
:10097000D82ED418012F0F7706FF09C00E7FDF1481
:1009800030F404FF06C002FD04C00F7E02C01D2D1E
:1009900001C01F2D802F90E004FF0CC0FE01ED0D63
:1009A000F11D2081203311F4097E09C002FF06C029
:1009B0001E5F05C086789070009709F01F5F802E3B
:1009C000992403FD12C000FF0DC0FD2C1E1550F42C
:1009D000FE0CF11A1E2D06C080E290E0B3010E94C9
:1009E00059051F5F1E15C0F304C01E1510F4E11A4F
:1009F00001C0EE2484FE0FC080E390E0B3010E94AA
:100A0000590582FE1FC081FE03C088E590E010C03A
:100A100088E790E00DC0C40186789070009791F04F
:100A200081FC02C080E201C08BE207FD8DE290E014
:100A3000B3010E94590506C080E390E0B3010E9413
:100A40005905FA94DF14C0F3DA94F201ED0DF11DAB
:100A5000808190E0B3010E945905DD20A9F706C00E
:100A600080E290E0B3010E945905EA94EE20C1F7BC
:100A700040CEF3018681978102C08FEF9FEF2D96C4
:100A8000E2E10C94FF05FC010590615070400110FB
:100A9000D8F7809590958E0F9F1F0895FC016150A7
:100AA000704001900110D8F7809590958E0F9F1F90
:100AB00008950F931F93CF93DF938C01EB018B81EC
:100AC00081FF1BC082FF0DC02E813F818C819D81E3
:100AD0002817390764F4E881F9810193F983E883E1
:100AE00006C0E885F985802F0995009731F48E813D
:100AF0009F8101969F838E8302C00FEF1FEFC80175
:100B0000DF91CF911F910F910895FA01AA27283004
:100B100051F1203181F1E8946F936E7F6E5F7F4FCA
:100B20008F4F9F4FAF4FB1E03ED0B4E03CD0670F46
:100B3000781F891F9A1FA11D680F791F8A1F911D99
:100B4000A11D6A0F711D811D911DA11D20D009F4E9
:100B500068943F912AE0269F11243019305D31932B
:100B6000DEF6CF010895462F4770405D4193B3E014
:100B70000FD0C9F7F6CF462F4F70405D4A3318F0BB
:100B8000495D31FD4052419302D0A9F7EACFB4E06C
:100B9000A6959795879577956795BA95C9F7009724
:100BA0006105710508959B01AC010A2E06945795C5
:100BB000479537952795BA95C9F7620F731F841F1C
:100BC000951FA01D08952F923F924F925F926F92B2
:100BD0007F928F929F92AF92BF92CF92DF92EF92CD
:100BE000FF920F931F93CF93DF93CDB7DEB7CA1B4E
:100BF000DB0B0FB6F894DEBF0FBECDBF09942A8879
:100C0000398848885F846E847D848C849B84AA8420
:100C1000B984C884DF80EE80FD800C811B81AA81AD
:100C2000B981CE0FD11D0FB6F894DEBF0FBECDBF78
:080C3000ED010895F894FFCFD7
:100C3800256400040005000600070000000100020A
:040C480000030000A5
:00000001FF
