:100000000C942A000C9447000C9447000C94470071
:100010000C9447000C9447000C9447000C94470044
:100020000C9447000C9447000C9447000C94470034
:100030000C9447000C9447000C9447000C94470024
:100040000C9447000C9447000C9447000C94470014
:100050000C94470011241FBECFE5D8E0DEBFCDBF12
:1000600010E0A0E6B0E0EEE0F2E002C005900D92F4
:10007000A037B107D9F710E0A0E7B0E001C01D92AA
:10008000A037B107E1F70E9449000C9405010C94D8
:1000900000000E94990080E690E00E94D70080E076
:1000A00090E00895C39A83ED90E30197F1F700C0C3
:1000B0000000C39808958AB38F708ABBC29AC19812
:1000C0000E9452008AB3806F8ABBC2980895CF9372
:1000D000C82F0E945B008BB39C2F907F8F70892B61
:1000E0008BBB88B3897F88BB0E9452008BB3C295BB
:1000F000C07F8F70C82BCBBB88B3897F88BB0E9421
:100100005200CF910895813039F4603168F4862F20
:1001100080580E9467000895823031F4603120F4E5
:10012000862F80540E946700089581E00E94670036
:10013000089587E893E10197F1F700C0000087B3C5
:100140008E6087BB88B3817F88BB8FEF8ABB85EACF
:100150009EE00197F1F700C000000E94950082E048
:100160000E94670088E20E94670086E00E946700A4
:1001700080E80E9467008FE00E9467000895CF9397
:10018000C82F8BB39C2F907F8F70892B8BBBC19A0C
:10019000C2980E9452008BB3C295C07F8F70C82B4B
:1001A000CBBBC19AC2980E945200CF910895EF92A2
:1001B000FF920F931F93CF93DF93082F192FC0E067
:1001C000D0E0EE24FF2415C021960E94BF00C0316C
:1001D000D10529F482E060E00E9483000AC0C032A9
:1001E000D10539F40E94950081E060E00E9483000F
:1001F000E701F80181918F01882331F7DF91CF91D9
:0E0200001F910F91FF90EF900895F894FFCF9B
:10020E004C6561726E20496E204465707468000002
:00000001FF
