:100000000C942A000C9447000C9447000C94470071
:100010000C9447000C9447000C9447000C94470044
:100020000C9447000C9447000C9447000C94470034
:100030000C9447000C9447000C9447000C94470024
:100040000C9447000C9447000C9447000C94470014
:100050000C94470011241FBECFE5D8E0DEBFCDBF12
:1000600010E0A0E6B0E0ECE5F1E002C005900D92F2
:10007000A036B107D9F710E0A0E6B0E001C01D92AC
:10008000A036B107E1F70E9453000C94AC000C9429
:1000900000008C9A94988FEF84BB15BA8898909A38
:1000A0008998919A08950E94490060E070E0A62F17
:1000B000F72F80B390E08130910521F082309105D7
:1000C000C1F73BC0949A0FEB17E229E001501040B2
:1000D0002040E1F700C0000094982FEB37E249E0A0
:1000E000215030404040E1F700C00000E2CF9C01C9
:1000F00022953295307F3227207F3227276025BB1B
:100100000FE31DE023E0015010402040E1F700C064
:100110000000E5BB0FE31DE023E00150104020404C
:10012000E1F700C0000001968A30910501F74F5FAA
:100130005F4F4A30510511F40DC0AB01CA018295E1
:100140009295907F9827807F9827E82FEB608A2FE1
:0C0150009F2FCDCF15BAADCFF894FFCF94
:00000001FF
