:100000000C942A000C9447000C9447000C94470071
:100010000C9447000C9447000C9447000C94470044
:100020000C9447000C9447000C9447000C94470034
:100030000C9447000C9447000C9447000C94470024
:100040000C9447000C9447000C9447000C94470014
:100050000C94470011241FBECFE5D8E0DEBFCDBF12
:1000600010E0A0E6B0E0E0E2F1E002C005900D9201
:10007000A036B107D9F710E0A0E6B0E001C01D92AC
:10008000A036B107E1F70E944D000C948E000C944D
:1000900000008FEF8ABB1BBA08950E94490061E0FF
:1000A00070E042E050E020E030E0C0E0D0E0E1E08D
:1000B000F0E003C0BE0101C0BF0161157105A1F0F0
:1000C000842F81508BBB2F5F3F4F440F551F8FEB09
:1000D00097E2A9E081509040A040E1F700C0000005
:1000E0002830310551F7E6CFCA0199230CF4019667
:1000F000AC0155954795842F81508BBB21503040E2
:100100008FEB97E2A9E081509040A040E1F700C05A
:1001100000009FEF2F3F390781F6CECFF894FFCF35
:00000001FF
